:100000000C9434000C9449000C9449000C94490061
:100010000C9449000C9449000C9449000C9449003C
:100020000C9449000C9449000C9449000C9449002C
:100030000C9449000C9449000C9449000C9449001C
:100040000C9449000C9449000C944B000C9449000A
:100050000C9449000C9449000C9449000C944900FC
:100060000C9449000C94490011241FBECFEFD8E036
:10007000DEBFCDBF11E0A0E0B1E0E0E9F2E002C0F8
:1000800005900D92A231B107D9F70E94AE000C94F1
:1000900046010C9400001F920F9200905F000F9297
:1000A00011242F933F934F935F936F937F938F937D
:1000B0009F93AF93BF93EF93FF93CF93DF93CDB70E
:1000C000DEB786EC90E0FC01808180530E947D00C9
:1000D0000000DF91CF91FF91EF91BF91AF919F9180
:1000E0008F917F916F915F914F913F912F910F90E1
:1000F00000925F000F901F901895CF93DF93CDB7BC
:10010000DEB763970FB6F894DEBF0FBECDBF8B8B03
:1001100022E1E0E0F1E0CE010196DC0101900D92D8
:100120002A95E1F785E290E02B89222F30E0220F1B
:10013000331FAE014F5F5F4F240F351FF901208140
:1001400031812F77FC012083000063960FB6F8946D
:10015000DEBF0FBECDBFDF91CF910895CF93DF9368
:10016000CDB7DEB784E290E02FEFFC0120838AE276
:1001700090E02AE230E0F90120812868FC01208328
:1001800088E290E028E230E0F90120812E7FFC0136
:10019000208388E290E028E230E0F90120812064A9
:1001A000FC0120838BE290E02BE230E0F90120811A
:1001B0002F67FC01208389E690E029E630E0F90111
:1001C00020812260FC0120838DE390E02DE330E06C
:1001D000F90120812160FC01208388E690E024E081
:1001E000FC0120838DE690E02FE7FC01208384E46E
:1001F00090E022E0FC01208385E490E023E0FC0114
:10020000208387E490E029EFFC0120838EE690E0D4
:1002100022E0FC0120838CE790E020E4FC012083B5
:100220008AE790E027EEFC0120838BE790E0FC0159
:1002300010828EE790E0FC01108283EB90E02FEFBC
:10024000FC01208380EB90E023E2FC01208381EB22
:1002500090E02AE1FC01208384EB90E02CE4FC0197
:10026000208385EC90E0FC01108284EC90E02FEF7D
:10027000FC01208381EC90E028E9FC01208382ECE2
:1002800090E026E0FC0120837894FFCFF894FFCF24
:1002900011001800190020000000010008000900EA
:0202A000080054
:00000001FF
