S0110000737072696E745F31302E73726563B3
S11300000C9424010C94E5010C9441010C944101DD
S11300100C9441010C9405020C9441010C9441018F
S11300200C9441010C9441010C9441010C94410144
S11300300C9441010C9441010C9443010C94410132
S11300400C9441010C9441010C9441010C94410124
S11300500C9441010C9441010C9441010C94410114
S11300600C9441010C944101000000000000005F69
S113007000000007000700147F147F14242A7F2A3D
S11300801223130864623649552250000503000008
S1130090001C2241000041221C0014083E081408E0
S11300A0083E0808005030000008080808080060EE
S11300B060000020100804023E5149453E00427F82
S11300C0400042615149462141454B311814127F89
S11300D01027454545393C4A494930017109050312
S11300E03649494936064949291E0036360000007A
S11300F0563600000814224100141414141400414C
S11301002214080201510906324979413E7E111137
S1130110117E7F494949363E414141227F41412276
S11301201C7F494949417F090909013E4149497AEE
S11301307F0808087F00417F41002040413F017F44
S1130140081422417F404040407F020C027F7F041C
S113015008107F3E4141413E7F090909063E415155
S1130160215E7F09192946464949493101017F0128
S1130170013F4040403F1F2040201F3F4038403F48
S11301806314081463070870080761514945430064
S11301907F41410002040810200041417F00040215
S11301A00102044040404040000102040020545435
S11301B054787F48444438384444442038444448BC
S11301C07F3854545418087E0901020C5252523E8E
S11301D07F0804047800447D40002040443D007FB3
S11301E01028440000417F40007C041804787C08F7
S11301F004047838444444387C141414080814144F
S1130200187C7C080404084854545420043F444097
S1130210203C4040207C1C2040201C3C4030403C82
S113022044281028440C5050503C4464544C44001E
S11302300836410000007F00000041360800100825
S1130240081008000000000011241FBECFEFD8E002
S1130250DEBFCDBF11E0A0E0B1E0E8EFF3E202C001
S113026005900D92A834B107D9F723E0A8E4B1E0D2
S113027001C01D92A935B207E1F70E9493080C94BE
S1130280FA110C9400001F920F9200905F000F92DD
S113029011242F933F934F935F936F937F938F9387
S11302A09F93AF93BF93EF93FF93CF93DF93CDB718
S11302B0DEB78091490190914A01A0914B01B09120
S11302C04C010196A11DB11D8093490190934A01EF
S11302D0A0934B01B0934C018091490190914A0144
S11302E0A0914B01B0914C0128E833E140E050E08B
S11302F0BC01CD010E94C00EDC01CB01892B8A2BED
S11303008B2B19F481E080934D01809149019091E8
S11303104A01A0914B01B0914C0124EF31E040E03F
S113032050E0BC01CD010E94C00EDC01CB01892B41
S11303308A2B8B2B19F481E080934E018091490123
S113034090914A01A0914B01B0914C0120E63AEE04
S113035040E050E0BC01CD010E94C00EDC01CB01A5
S1130360892B8A2B8B2B19F481E080935001809187
S1130370490190914A01A0914B01B0914C0120E7B1
S113038031E141E050E0BC01CD010E94C00EDC012E
S1130390CB01892B8A2B8B2B19F481E0809351019B
S11303A00000DF91CF91FF91EF91BF91AF919F91A9
S11303B08F917F916F915F914F913F912F910F900A
S11303C000925F000F901F9018951F920F9200905B
S11303D05F000F9211248F939F93CF93DF93CDB738
S11303E0DEB780915201909153010196909353018D
S11303F0809352010000DF91CF919F918F910F90D4
S113040000925F000F901F9018951F920F9200901A
S11304105F000F9211242F938F939F93EF93FF9379
S1130420CF93DF93CDB7DEB789E290E0FC01808102
S1130430882F90E080749927892B69F48091480172
S1130440833030F4809148018F5F80934801E8C085
S113045010924801E5C089E290E0FC018081882F78
S113046090E080729927892B09F065C0809148013A
S1130470882F90E081309105A9F0823091051CF419
S1130480892B39F0CDC08230910521F10397D1F148
S1130490C7C09091000181E0992309F080E0809326
S11304A00001BEC080910001813009F0AEC080918E
S11304B0010190910201803D974008F4A6C080910B
S11304C0010190910201885E934090930201809310
S11304D001019BC080910001813009F098C0809196
S11304E0030190910401803D974008F490C08091ED
S11304F0030190910401885E9340909304018093DA
S1130500030185C080910001813009F082C080918F
S1130510050190910601803D974008F47AC08091CE
S1130520050190910601885E9340909306018093A3
S1130530050100006EC089E290E0FC018081882FF3
S113054090E080719927892B09F06AC08091480155
S1130550882F90E081309105A9F0823091051CF438
S1130560892B39F05DC08230910519F10397B9F1F7
S113057057C09091000181E0992309F080E08093B5
S113058000014EC080910001813009F044C0809187
S113059001019091020181349F41E8F580910101AC
S11305A09091020188519C4F909302018093010124
S11305B032C080910001813081F5809103019091D6
S11305C0040181349F4148F5809103019091040115
S11305D088519C4F90930401809303011EC0809125
S11305E000018130E1F4809105019091060181348C
S11305F09F41A8F4809105019091060188519C4F78
S113060090930601809305010AC0000009C0000010
S113061007C0000005C0000003C0000001C00000C6
S11306200000DF91CF91FF91EF919F918F912F91D6
S11306300F9000925F000F901F9018958F929F92D9
S1130640AF92BF92CF92DF92EF92FF920F931F93DC
S1130650CF93DF93CDB7DEB7A4970FB6F894DEBF80
S11306600FBECDBFEB8AFC8A0D8B1E8B2F8B388F70
S1130670498F5A8F6B8F7C8F8D8F9E8FAF8EB8A2D0
S1130680C9A2DAA29CA28BA222E1ECE0F1E0CE01A5
S11306900196DC0101900D922A95E1F78BA19CA1B2
S11306A0FC018081882331F085E290E021E1FC01A6
S11306B020832AC289E290E0FC01808188230CF423
S11306C066C080915401882379F5809155019091F9
S11306D05601A0915701B09158012F8D38A149A11D
S11306E05AA179018A01E81AF90A0A0B1B0BD801ED
S11306F0C701843F9140A105B105B0F085E290E0C7
S113070020E1FC0120838F8D98A1A9A1BAA1809337
S1130710550190935601A0935701B09358018091CD
S113072054018F5F8093540180915401813009F00A
S1130730EBC18091550190915601A0915701B09160
S113074058012F8D38A149A15AA179018A01E81ACB
S1130750F90A0A0B1B0BD801C701803D9740A1057C
S1130760B10508F4D1C185E290E029E3FC012083BE
S11307708F8D98A1A9A1BAA1809355019093560198
S1130780A0935701B093580110925401BDC185E262
S113079090E020915901222F30E0220F331FAE0147
S11307A04F5F5F4F240F351FF901208131812F776F
S11307B0FC01208380915901843088F58091550192
S11307C090915601A0915701B09158012F8D38A1F5
S11307D049A15AA1281B390B4A0B5B0B8C899D89B3
S11307E09695879596958795CC01A0E0B0E028175B
S11307F039074A075B0708F491C0809159018F5F5C
S1130800809359018F8D98A1A9A1BAA18093550114
S113081090935601A0935701B09358017FC08091E3
S11308205901853068F58091550190915601A09148
S11308305701B09158012F8D38A149A15AA1281B05
S1130840390B4A0B5B0B888D998DCC01A0E0B0E08D
S1130850281739074A075B0708F460C080915901DB
S11308608F5F809359018F8D98A1A9A1BAA180931C
S1130870550190935601A0935701B09358014EC06F
S113088080915901893080F58091550190915601EC
S1130890A0915701B09158012F8D38A149A15AA1B7
S11308A0281B390B4A0B5B0B8E899F89969587957C
S11308B096958795CC01A0E0B0E0281739074A0740
S11308C05B0760F1809159018F5F809359018F8D8F
S11308D098A1A9A1BAA18093550190935601A09320
S11308E05701B09358011AC0109259018F8D98A1E5
S11308F0A9A1BAA18093550190935601A0935701E1
S1130900B09358018F8D98A1A9A1BAA180935A01DF
S113091090935B01A0935C01B0935D0180915E01B3
S1130920843008F04FC080915A0190915B01A091EE
S11309305C01B0915D012F8D38A149A15AA1281BFA
S1130940390B4A0B5B0B6C897D89888D998D860FD9
S1130950971F9695879596958795CC01A0E0B0E072
S1130960281739074A075B0708F4CEC080915E0157
S11309708F5F80935E012C893D89888D998D820FCC
S1130980931F96958795969587959C0140E050E036
S113099080915A0190915B01A0915C01B0915D013D
S11309A0820F931FA41FB51F80935A0190935B017C
S11309B0A0935C01B0935D0180915E01805D0E9413
S11309C03F08A2C080915E01883008F053C0809136
S11309D05A0190915B01A0915C01B0915D012F8D52
S11309E038A149A15AA1281B390B4A0B5B0B6E890C
S11309F07F89888D998D7B01E81AF90AC70196953C
S1130A00879596958795CC01A0E0B0E02817390723
S1130A104A075B0708F478C080915E018F5F80937A
S1130A205E012E893F89888D998D8901081B190BD8
S1130A30C80196958795969587959C0140E050E06E
S1130A4080915A0190915B01A0915C01B0915D018C
S1130A50820F931FA41FB51F80935A0190935B01CB
S1130A60A0935C01B0935D0180915E01805D0E9462
S1130A703F084AC080915E01893008F03EC08091F1
S1130A805A0190915B01A0915C01B0915D012F8DA1
S1130A9038A149A15AA1281B390B4A0B5B0B888D3D
S1130AA0998DCC01A0E0B0E0281739074A075B070D
S1130AB058F180915E018F5F80935E01888D998DDE
S1130AC09C0140E050E080915A0190915B01A0911B
S1130AD05C01B0915D01820F931FA41FB51F809329
S1130AE05A0190935B01A0935C01B0935D018091E6
S1130AF05E01805D0E943F0807C010925E018091F4
S1130B005E01805D0E943F080000A4960FB6F89431
S1130B10DEBF0FBECDBFDF91CF911F910F91FF902C
S1130B20EF90DF90CF90BF90AF909F908F900895FB
S1130B30EF92FF920F931F93CF93DF93CDB7DEB75E
S1130B40A1970FB6F894DEBF0FBECDBFEE8AFF8A21
S1130B50088F198F2A8F3B8F4C8F5D8F6E8F7F8FFD
S1130B6088A399A38F89988D96958795969587954F
S1130B70969587959C01A5ECB0E20E94010F929591
S1130B8082958F7089279F708927292F2F938F93A0
S1130B908EE191E0892F8F938EE191E08F93CE01C6
S1130BA001969F938F930E94100F0F900F900F90B8
S1130BB00F900F900F90898D9A8D969587959695A5
S1130BC08795969587959C01A5ECB0E20E94010F4C
S1130BD0929582958F7089279F708927292F2F934B
S1130BE08F938EE191E0892F8F938EE191E08F9323
S1130BF0CE010396292F2F938F930E94100F0F90ED
S1130C000F900F900F900F900F908B8D9C8D969559
S1130C10879596958795969587959C01A5ECB0E266
S1130C200E94010F929582958F7089279F70892762
S1130C30292F2F938F938EE191E0892F8F938EE14B
S1130C4091E08F93CE010596292F2F938F930E94C5
S1130C50100F0F900F900F900F900F900F908D8D9D
S1130C609E8D292F2F938F938EE191E0892F8F935F
S1130C708EE191E08F93CE010996292F2F938F93C4
S1130C800E94100F0F900F900F900F900F900F90E5
S1130C908F8D98A1292F2F938F938EE191E0892F27
S1130CA08F938EE191E08F93CE010E96292F2F938F
S1130CB08F930E94100F0F900F900F900F900F9032
S1130CC00F900E94D10B65E080E00E94270D61E047
S1130CD081E291E00E94040D65E083E20E94270D09
S1130CE080910001882331F461E086E291E00E9462
S1130CF0040D05C061E088E291E00E94040D6FE0FC
S1130D0080E00E94270D61E08AE291E00E94040DD8
S1130D106FE083E20E94270D61E0CE0101960E94FC
S1130D20040D69E180E00E94270D61E080E391E019
S1130D300E94040D69E183E20E94270DCE0103960F
S1130D4061E00E94040D63E280E00E94270D61E0EF
S1130D5086E391E00E94040D63E283E20E94270D82
S1130D60CE01059661E00E94040D80914801880F30
S1130D70982F990F990F890F8B5F682F8DE20E942E
S1130D80270D61E08CE391E00E94040D69E184E3A6
S1130D900E94270DCE01099662E00E94040D68E2CC
S1130DA087E30E94270D61E08EE391E00E94040D29
S1130DB060E084E30E94270DCE010E9662E00E945B
S1130DC0040D6FE087E30E94270D61E084E491E065
S1130DD00E94040D0E943A0D0000A1960FB6F894EB
S1130DE0DEBF0FBECDBFDF91CF911F910F91FF905A
S1130DF0EF900895CF93DF9300D0CDB7DEB79A83F9
S1130E00898389819A81FC018081882309F4B8C08F
S1130E1089819A81FC011082209152013091530101
S1130E20C901880F991F820F931F880F991F880F7C
S1130E30991F909308018093070110925301109217
S1130E40520180910001882309F09AC08091070122
S1130E5090910801CC01A0E0B0E0BC01CD010E945A
S1130E60900DDC01CB012AE939E945E851E4BC01E4
S1130E70CD010E941F0EDC01CB01BC01CD010E94FB
S1130E80610DDC01CB01969587959695879596958E
S1130E9087959C01A5ECB0E20E94010F9295829582
S1130EA08F7089279F708927AC014F5F5F4F28EEB1
S1130EB033E0429FC001439F900D529F900D112437
S1130EC090930201809301018091010190910201AC
S1130ED08932934230F088E293E290930201809346
S1130EE001018091070190910801CC01A0E0B0E0DC
S1130EF0BC01CD010E94900DDC01CB012AE939E946
S1130F0045E851E4BC01CD010E941F0EDC01CB0178
S1130F10BC01CD010E94610DDC01CB019695879542
S1130F2096958795969587959C01A5ECB0E20E94CD
S1130F30010FAC01529542954F7045275F704527CC
S1130F4028EE33E0429FC001439F900D529F900DC5
S1130F50112428E233E2A901481B590BCA019093DA
S1130F600401809303018091030190910401813075
S1130F709D4730F088EE93E0909304018093030141
S1130F8000000F900F90DF91CF910895EF92FF92A0
S1130F900F931F93CF93DF9300D0CDB7DEB79A831F
S1130FA0898389819A81FC018081882309F443C063
S1130FB089819A81FC01108288E790E0FC0180819C
S1130FC091819C0140E050E088E19CE9AFE0B0E011
S1130FD0BC01CD010E94E20EDA01C901885E934092
S1130FE090930A01809309018091090190910A016B
S1130FF08C32914028F084EB90E0FC0110821BC0FD
S113100086E290E0FC018081882F90E0807499272B
S1131010892B31F08091070190910801892B31F0DF
S113102084EB90E02FEFFC01208305C084EB90E07B
S11310302CE4FC012083E0900001F0900101009178
S113104002011091030120910401309105014091A6
S11310500601509107016091080170910901809186
S11310600A0190910B010E94980500000F900F90C7
S1131070DF91CF911F910F91FF90EF900895CF933F
S1131080DF931F92CDB7DEB78983000080EC90E038
S1131090FC018081882F90E080729927892BB1F31D
S11310A086EC90E02981FC01208300000F90DF9101
S11310B0CF910895CF93DF9300D000D0CDB7DEB7A2
S11310C09A8389837C836B8389819A81FC018081E3
S11310D0882371F081E080934F0188E890E028EB49
S11310E03BE0FC013183208389819A81FC011082D9
S11310F08B819C81FC018081882369F010924F01CF
S113110088E890E020ED37E0FC01318320838B8177
S11311109C81FC01108200000F900F900F900F90A3
S1131120DF91CF9108958F929F92AF92BF92CF9209
S1131130DF92EF92FF920F931F93CF93DF93CDB77C
S1131140DEB784E290E02FE3FC0120838AE290E0A2
S11311502AE230E0F90120812860FC01208387E243
S113116090E027E230E0F90120812260FC01208335
S113117088E290E028E230E0F90120812E7BFC0136
S1131180208388E290E028E230E0F90120812064A5
S1131190FC0120838BE290E02BE230E0F901208116
S11311A0206FFC01208389E690E029E630E0F90114
S11311B020812A60FC0120838DE390E02DE330E060
S11311C0F90120812160FC01208388E690E024E07D
S11311D0FC0120838DE690E020E7FC01208384E479
S11311E090E022E0FC01208385E490E023E0FC0110
S11311F0208387E490E029EFFC0120838EE690E0D1
S113120022E0FC0120838CE790E020E4FC012083B1
S11312108AE790E027EEFC0120838BE790E0FC0155
S113122010828EE790E028E3FC01208380EB90E0BD
S113123023E2FC01208381EB90E026E0FC01208383
S113124084EB90E02DE4FC01208386E890E02FE31A
S11312503CE9FC013183208380E890E022EAFC0130
S1131260208381E890E02AE1FC01208388E890E073
S113127020ED37E0FC013183208385EC90E0FC0114
S1131280108284EC90E02FEFFC01208381EC90E04D
S113129028E9FC01208382EC90E026E0FC01208315
S11312A00E94510A80910001882391F488EE93E012
S11312B0909302018093010188E293E290930401E8
S11312C08093030188EE93E09093060180930501D7
S11312D0E0900001F09001010091020110910301DE
S11312E020910401309105014091060150910701BC
S11312F0609108017091090180910A0190910B019C
S11313000E94980578948EE491E00E94C6078DE4CB
S113131091E00E94FA068091490190914A01A091BE
S11313204B01B0914C010F2EFFE48F2EF1E09F2E64
S1131330F02D5C016D01E0900001F090010100913D
S113134002011091030120910401309105014091A3
S11313500601509107016091080170910901809183
S11313600A0190910B010E941E0361E571E080E582
S113137091E00E945A08C7CF1F93CF93DF9300D008
S1131380CDB7DEB789836A8388E290E028E230E053
S1131390F90120812D7FFC0120838A81882351F06B
S11313A088E290E028E230E0F90120812860FC0125
S11313B0208309C088E290E028E230E0F90120812E
S11313C0277FFC01208310E03CC08981882F90E0B6
S11313D0212F30E047E050E0BA01621B730B9B0100
S11313E002C0959587952A95E2F781709927892BF4
S11313F051F088E290E028E230E0F9012081206198
S1131400FC01208309C088E290E028E230E0F90181
S113141020812F7EFC01208388E290E028E230E0E6
S1131420F90120812062FC01208388E290E028E217
S113143030E0F90120812F7DFC012083812F11E010
S1131440180F183010F288E290E028E230E0F90139
S113145020812260FC01208300000F900F90DF9117
S1131460CF911F910895CF93DF931F92CDB7DEB72D
S1131470898360E089810E94BC0900000F90DF919C
S1131480CF910895CF93DF931F92CDB7DEB78983B1
S113149061E089810E94BC0900000F90DF91CF9127
S11314A008950F931F93CF93DF93CDB7DEB76C9757
S11314B00FB6F894DEBF0FBECDBF87E290E027E2FF
S11314C030E0F90120812260FC01208387E290E072
S11314D027E230E0F90120812460FC01208387E2C7
S11314E090E027E230E0F90120812860FC012083AC
S11314F087E290E027E230E0F90120812061FC01DD
S1131500208387E290E027E230E0F9012081206225
S1131510FC01208388E290E028E230E0F901208198
S11315202460FC01208388E290E028E230E0F901A5
S113153020812260FC01208380E090E0A0E2B1E4FD
S113154089839A83AB83BC8320E030E04AE753E489
S113155069817A818B819C810E941F0EDC01CB0101
S11315608B8B9C8BAD8BBE8B20E030E040E85FE33F
S11315706B897C898D899E890E945C0D88232CF45B
S113158081E090E0988F8F8B3FC020E03FEF4FE7E2
S113159057E46B897C898D899E890E941A0E1816DE
S11315A04CF520E030E040E251E469817A818B819E
S11315B09C810E941F0EDC01CB01BC01CD010E9465
S11315C0610DDC01CB01988F8F8B0FC089E190E016
S11315D09A8F898F898D9A8D0197F1F79A8F898FC8
S11315E08F89988D0197988F8F8B8F89988D892BF0
S11315F069F714C06B897C898D899E890E94610D6D
S1131600DC01CB01988F8F8B8F89988D9C8F8B8F6A
S11316108B8D9C8D0197F1F79C8F8B8F88E290E0E6
S113162028E230E0F90120812B7FFC01208380E057
S113163090E0ACE8B2E48D839E83AF83B88720E06A
S113164030E04AE753E46D817E818F8198850E9462
S11316501F0EDC01CB0189879A87AB87BC8720E00A
S113166030E040E85FE369857A858B859C850E943C
S11316705C0D88232CF481E090E09E878D873FC029
S113168020E03FEF4FE757E469857A858B859C8599
S11316900E941A0E18164CF520E030E040E251E4A6
S11316A06D817E818F8198850E941F0EDC01CB01A4
S11316B0BC01CD010E94610DDC01CB019E878D87A9
S11316C00FC089E190E0988B8F878F859889019767
S11316D0F1F7988B8F878D859E8501979E878D87DF
S11316E08D859E85892B69F714C069857A858B85DC
S11316F09C850E94610DDC01CB019E878D878D85C1
S11317009E859A8B898B89899A890197F1F79A8B9F
S1131710898B88E290E028E230E0F901208124609E
S1131720FC01208388E290E028E230E0F901208186
S11317302D7FFC01208381E20E94330A83E10E9411
S1131740330A86E00E94330A82EC0E94330A80E264
S11317500E94330A89E00E94330A80E80E94330A17
S113176080E40E94330A00E010E005C080E00E949B
S1131770420A0F5F1F4F083FF1E01F07B8F388E0EC
S11317800E94330A8CE00E94330A00006C960FB664
S1131790F894DEBF0FBECDBFDF91CF911F910F91A3
S11317A008950F931F93CF93DF93CDB7DEB780E8EF
S11317B00E94330A80E40E94330A10925703109265
S11317C0580300E010E007C0C801815A9E4FFC0195
S11317D010820F5F1F4F083FF1E01F07A8F30000BE
S11317E0DF91CF911F910F910895CF93DF9300D094
S11317F000D01F92CDB7DEB78B836C834D838C8171
S1131800869586958695882F90E044E5489F9001BB
S1131810499F300D11248B81882F90E0820F931FF4
S1131820815A9E4F9A8389838D818823C9F0898147
S11318309A81FC018081482F8C81882F90E09C0143
S11318402770332781E090E002C0880F991F2A9502
S1131850E2F7842B282F89819A81FC01208319C007
S113186089819A81FC018081482F8C81882F90E0A6
S11318709C012770332781E090E002C0880F991FF4
S11318802A95E2F780958423282F89819A81FC0187
S1131890208300000F900F900F900F900F90DF9116
S11318A0CF9108950F931F93CF93DF9300D000D06F
S11318B01F92CDB7DEB78C836D8310E065C000E066
S11318C04EC08C81882F90E09C01205231099D816B
S11318D0812F692F0E94B40E482F50E0C901880F50
S11318E0991F880F991F820F931F840F951F885982
S11318F09F4F9A83898389819A81FC0184918B8388
S11319008B81282F30E09D81802F692F0E94B40E97
S1131910882F90E0A90102C0559547958A95E2F772
S1131920CA0181709927892B61F080915803982FFF
S1131930900F80915703810F41E0692F0E94F50BAE
S11319400BC080915803982F900F80915703810FFB
S113195040E0692F0E94F50B802F01E0080F402F13
S113196050E08D81282F30E0C901880F991F880F1E
S1131970991F880F991F821B930B481759070CF462
S1131980A0CF812F11E0180F412F50E08D81282F17
S113199030E0C901880F991F880F991F820F931F88
S11319A0481759070CF48BCF209157039D81892F39
S11319B0880F880F890F820F8F5F80935703809160
S11319C05703843570F010925703209158039D817A
S11319D0892F880F880F880F891B820F8F5F809350
S11319E0580380915803803320F0109257031092CB
S11319F0580300000F900F900F900F900F90DF91FD
S1131A00CF911F910F910895CF93DF9300D01F9230
S1131A10CDB7DEB79A8389836B830CC089819A81A1
S1131A209C012F5F3F4F3A832983FC0180816B81A6
S1131A300E94520C89819A81FC018081882371F76C
S1131A4000000F900F900F90DF91CF910895CF93E6
S1131A50DF9300D0CDB7DEB789836A838981809311
S1131A6057038A818093580300000F900F90DF91F1
S1131A70CF9108950F931F93CF93DF93CDB7DEB724
S1131A8080E80E94330A80E40E94330A00E010E0F8
S1131A9009C0C801815A9E4FFC0180810E94420AFC
S1131AA00F5F1F4F083FF1E01F0798F30000DF911D
S1131AB0CF911F910F9108950E94CD0D08F481E0FC
S1131AC008950E94F90D88F09F5798F0B92F99272F
S1131AD0B751B0F0E1F0660F771F881F991F1AF015
S1131AE0BA95C9F714C0B13091F00E94130EB1E059
S1131AF008950C94130E672F782F8827B85F39F058
S1131B00B93FCCF3869577956795B395D9F73EF4AD
S1131B1090958095709561957F4F8F4F9F4F089555
S1131B20E89409C097FB3EF4909580957095619573
S1131B307F4F8F4F9F4F9923A9F0F92F96E9BB2729
S1131B409395F695879577956795B795F111F8CFA5
S1131B50FAF4BB0F11F460FF1BC06F5F7F4F8F4F10
S1131B609F4F16C0882311F096E911C0772321F006
S1131B709EE8872F762F05C0662371F096E8862F9E
S1131B8070E060E02AF09A95660F771F881FDAF7F5
S1131B90880F9695879597F90895990F0008550F22
S1131BA0AA0BE0E8FEEF16161706E807F907C0F0DF
S1131BB012161306E407F50798F0621B730B840BE7
S1131BC0950B39F40A2661F0232B242B252B21F4C1
S1131BD008950A2609F4A140A6958FEF811D811D61
S1131BE0089557FD9058440F551F59F05F3F71F009
S1131BF04795880F97FB991F61F09F3F79F0879570
S1131C000895121613061406551FF2CF4695F1DFF8
S1131C1008C0161617061806991FF1CF8695710588
S1131C20610508940895E894BB2766277727CB01BC
S1131C3097F908950E94CD0D08F48FEF08950E943E
S1131C40320E0C94A30E0E94950E38F00E949C0E46
S1131C5020F0952311F00C948C0E0C94920E112408
S1131C600C94140E0E94F10D70F3959FC1F3950F1F
S1131C7050E0551F629FF001729FBB27F00DB11D0C
S1131C80639FAA27F00DB11DAA1F649F6627B00D9C
S1131C90A11D661F829F2227B00DA11D621F739F85
S1131CA0B00DA11D621F839FA00D611D221F749F93
S1131CB03327A00D611D231F849F600D211D822FDA
S1131CC0762F6A2F11249F5750409AF0F1F0882301
S1131CD04AF0EE0FFF1FBB1F661F771F881F91502E
S1131CE05040A9F79E3F510580F00C948C0E0C9443
S1131CF0140E5F3FE4F3983ED4F386957795679589
S1131D00B795F795E7959F5FC1F7FE2B880F911D57
S1131D109695879597F9089597F99F6780E870E0FD
S1131D2060E008959FEF80EC089500240A9416164D
S1131D30170618060906089500240A9412161306B5
S1131D40140605060895092E0394000C11F4882343
S1131D5052F0BB0F40F4BF2B11F460FF04C06F5F5F
S1131D607F4F8F4F9F4F0895991B79E004C0991FAF
S1131D70961708F0961B881F7A95C9F780950895E1
S1131D80A1E21A2EAA1BBB1BFD010DC0AA1FBB1F7B
S1131D90EE1FFF1FA217B307E407F50720F0A21BED
S1131DA0B30BE40BF50B661F771F881F991F1A945A
S1131DB069F760957095809590959B01AC01BD0184
S1131DC0CF010895052E97FB1EF400940E94F90E8E
S1131DD057FD07D00E94C00E07FC03D04EF40C94AC
S1131DE0F90E50954095309521953F4F4F4F5F4FD9
S1131DF0089590958095709561957F4F8F4F9F4F73
S1131E000895A29FB001B39FC001A39F700D811DCF
S1131E101124911DB29F700D811D1124911D0895EF
S1131E20AEE0B0E0E6E1FFE00C94D1110D891E892B
S1131E3086E08C831A8309838FEF9FE79E838D83CB
S1131E40AE01475E5F4F6F89788DCE0101960E9487
S1131E50320FEF81F885E00FF11F10822E96E4E037
S1131E600C94ED11ABE0B0E0E8E3FFE00C94C31197
S1131E706C017B018A01FC0117821682838181FF38
S1131E80CCC1CE0101963C01F6019381F70193FD8B
S1131E90859193FF81917F01882309F4BAC185322A
S1131EA039F493FD859193FF81917F01853229F463
S1131EB0B60190E00E942911E7CF912C212C312CFE
S1131EC0FFE1F315D8F08B3279F038F4803279F0F1
S1131ED08332A1F4232D20611DC08D3261F0803343
S1131EE069F4232D216016C0832D8260382EE32DE2
S1131EF0E4603E2E2AC0F32DF8601DC037FC2DC0CF
S1131F0020ED280F2A3040F08E32B9F436FC81C11E
S1131F10232D2064322E19C036FE06C08AE0989E16
S1131F20200D1124922E11C0EAE02E9E200D1124C2
S1131F30222EF32DF0623F2E08C08C3621F4832D1F
S1131F408068382E02C0883641F4F70193FD8591EC
S1131F5093FF81917F018111B3CF982F9F7D955479
S1131F60933028F40C5F1F4F9FE399830DC0833691
S1131F7031F0833771F0833509F059C021C0F8017D
S1131F80808189830E5F1F4F88248394912C530191
S1131F9013C02801F2E04F0E511CF801A080B1805B
S1131FA036FE03C0692D70E002C06FEF7FEFC501FC
S1131FB00E941E114C018201F32DFF773F2E16C0A3
S1131FC0280122E0420E511CF801A080B18036FEA7
S1131FD003C0692D70E002C06FEF7FEFC5010E945E
S1131FE013114C01F32DF0683F2E820133FC1BC00A
S1131FF0822D90E088169906B0F4B60180E290E054
S11320000E9429112A94F4CFF50137FC859137FEFB
S113201081915F01B60190E00E94291121102A9458
S113202021E0821A91088114910471F7E8C0843682
S113203011F0893641F5F80137FE07C060817181DE
S1132040828193810C5F1F4F08C060817181072ECC
S1132050000C880B990B0E5F1F4FF32DFF763F2E5C
S113206097FF09C090958095709561957F4F8F4F2C
S11320709F4FF0683F2E2AE030E0A3010E946511D3
S1132080882E861845C0853731F4232D2F7EB22E35
S11320902AE030E025C0932D997FB92E8F36C1F008
S11320A018F4883579F0B5C0803719F0883721F0F5
S11320B0B0C0E92FE061BE2EB4FE0DC0FB2DF4606C
S11320C0BF2E09C034FE0AC0292F2660B22E06C0D6
S11320D028E030E005C020E130E002C020E132E039
S11320E0F801B7FE07C060817181828193810C5F22
S11320F01F4F06C06081718180E090E00E5F1F4F2A
S1132100A3010E946511882E8618FB2DFF773F2EB0
S113211036FE0DC0232D2E7FA22E891458F434FED2
S11321200BC032FC09C0832D8E7EA82E05C0B82CAE
S1132130A32C03C0B82C01C0B92CA4FE0FC0FE010F
S1132140E80DF11D8081803321F49A2D997EA92E0A
S113215009C0A2FE06C0B394B39404C08A2D867845
S113216009F0B394A3FC11C0A0FE06C0B21488F415
S1132170280C922C9B180EC0B21460F4B60180E2B5
S113218090E00E942911B394F7CFB21418F42B18DD
S113219002C0982C212CA4FE10C0B60180E390E06C
S11321A00E942911A2FE17C0A1FC03C088E790E099
S11321B002C088E590E0B6010CC08A2D867859F0FB
S11321C0A1FE02C08BE201C080E2A7FC8DE2B60151
S11321D090E00E942911891438F4B60180E390E05C
S11321E00E9429119A94F7CF8A94F301E80DF11D06
S11321F08081B60190E00E9429118110F5CF222040
S113220009F442CEB60180E290E00E9429112A949A
S1132210F6CFF6018681978102C08FEF9FEF2B9650
S1132220E2E10C94DF11FC01059061507040011053
S1132230D8F7809590958E0F9F1F0895FC016150EB
S1132240704001900110D8F7809590958E0F9F1FD4
S113225008950F931F93CF93DF93FB01238121FDF7
S113226003C08FEF9FEF2CC022FF16C04681578119
S1132270248135814217530744F4A081B1819D0123
S11322802F5F3F4F318320838C93268137812F5FCB
S11322903F4F3783268314C08B01EC01FB0100847C
S11322A0F185E02D0995892BE1F6D80116968D91DB
S11322B09C911797019617969C938E931697CE012F
S11322C0DF91CF911F910F910895FA01AA27283029
S11322D051F1203181F1E8946F936E7F6E5F7F4FEF
S11322E08F4F9F4FAF4FB1E03ED0B4E03CD0670F6B
S11322F0781F891F9A1FA11D680F791F8A1F911DBE
S1132300A11D6A0F711D811D911DA11D20D009F40D
S113231068943F912AE0269F11243019305D31934F
S1132320DEF6CF010895462F4770405D4193B3E038
S11323300FD0C9F7F6CF462F4F70405D4A3318F0DF
S1132340495D31FD4052419302D0A9F7EACFB4E090
S1132350A6959795879577956795BA95C9F7009748
S11323606105710508959B01AC010A2E06945795E9
S1132370479537952795BA95C9F7620F731F841F40
S1132380951FA01D08952F923F924F925F926F92D6
S11323907F928F929F92AF92BF92CF92DF92EF92F1
S11323A0FF920F931F93CF93DF93CDB7DEB7CA1B72
S11323B0DB0B0FB6F894DEBF0FBECDBF09942A889D
S11323C0398848885F846E847D848C849B84AA8445
S11323D0B984C884DF80EE80FD800C811B81AA81D2
S11323E0B981CE0FD11D0FB6F894DEBF0FBECDBF9D
S10B23F0ED010895F894FFCFFC
S11323F8008813B80BE8030000000019000001006E
S113240808000900100011001800190020002575A3
S1132418004D6F646F0041004D00542E2056640037
S1132428542E20566D00542E20416D003C00632F1D
S10B24386D696E006C757800FB
S9030000FC
